:020000040800F2
:1000000040200020152500080BA400080125000849
:100010000125000801250008012500080000000056
:10002000000000000000000000000000252600087D
:100030000125000800000000F1250008B16100085A
:10004000E5270008E5270008E5270008E527000860
:10005000E5270008E5270008E5270008E527000850
:10006000E5270008E5270008E5270008E527000840
:10007000E5270008E5270008E5270008E527000830
:10008000E5270008E5270008E5270008E527000820
:10009000E5270008E5270008E5270008E527000810
:1000A000E5270008E5270008E5270008E527000800
:1000B000E5270008E5270008E5270008E5270008F0
:1000C000E5270008E5270008E5270008E5270008E0
:1000D000E5270008E5270008E5270008E5270008D0
:1000E000E5270008E5270008E5270008E5270008C0
:1000F000E5270008E5270008E5270008E5270008B0
:10010000E5270008E5270008E5270008E52700089F
:10011000E5270008E5270008E5270008E52700088F
:10012000E5270008E5270008E5270008E52700087F
:10013000E5270008E5270008E5270008E52700086F
:10014000E5270008E5270008E5270008E52700085F
:10015000E5270008E5270008E5270008E52700084F
:10016000E5270008E5270008E5270008E52700083F
:10017000E5270008E5270008E5270008E52700082F
:08018000E5270008E52700084F
:1001880081F0004102E000BF83F0004330B54FEA40
:1001980041044FEA430594EA050F08BF90EA020FAD
:1001A8001FBF54EA000C55EA020C7FEA645C7FEA40
:1001B800655C00F0E2804FEA5454D4EB5555B8BF63
:1001C8006D420CDD2C4480EA020281EA030382EAD4
:1001D800000083EA010180EA020281EA0303362D66
:1001E80088BF30BD11F0004F4FEA01314FF4801C39
:1001F8004CEA113102D0404261EB410113F0004F4B
:100208004FEA03334CEA133302D0524263EB430301
:1002180094EA050F00F0A780A4F10104D5F1200E9F
:100228000DDB02FA0EFC22FA05F2801841F10001FA
:1002380003FA0EF2801843FA05F359410EE0A5F1CE
:1002480020050EF1200E012A03FA0EFC28BF4CF0FF
:10025800020C43FA05F3C01851EBE37101F00045B5
:1002680007D54FF0000EDCF1000C7EEB00006EEBC2
:100278000101B1F5801F1BD3B1F5001F0CD349084C
:100288005FEA30004FEA3C0C04F101044FEA4452A3
:1002980012F5800F80F09A80BCF1004F08BF5FEA2A
:1002A800500C50F1000041EB045141EA050130BD0A
:1002B8005FEA4C0C404141EB0101013C28BFB1F51C
:1002C800801FE9D291F0000F04BF01460020B1FA67
:1002D80081F308BF2033A3F10B03B3F120020CDA3A
:1002E8000C3208DD02F1140CC2F10C0201FA0CF018
:1002F80021FA02F10CE002F11402D8BFC2F1200C7D
:1003080001FA02F120FA0CFCDCBF41EA0C01904032
:10031800E41AA2BF01EB0451294330BD6FEA04047B
:100328001F3C1CDA0C340EDC04F11404C4F1200266
:1003380020FA04F001FA02F340EA030021FA04F378
:1003480045EA030130BDC4F10C04C4F1200220FACF
:1003580002F001FA04F340EA0300294630BD21FA0D
:1003680004F0294630BD94F0000F83F4801306BFD3
:1003780081F480110134013D4EE77FEA645C18BFC7
:100388007FEA655C29D094EA050F08BF90EA020F5E
:1003980005D054EA000C04BF1946104630BD91EA56
:1003A800030F1EBF0021002030BD5FEA545C05D159
:1003B8004000494128BF41F0004130BD14F5800498
:1003C8003CBF01F5801130BD01F0004545F0FE410C
:1003D80041F470014FF0000030BD7FEA645C1ABF41
:1003E800194610467FEA655C1CBF0B46024650EA78
:1003F800013406BF52EA033591EA030F41F40021A4
:1004080030BD00BF90F0000F04BF0021704730B529
:100418004FF4806404F132044FF000054FF00001FE
:1004280050E700BF90F0000F04BF0021704730B5BF
:100438004FF4806404F1320410F0004548BF404294
:100448004FF000013EE700BF42004FEAE2014FEAE9
:1004580031014FEA02701FBF12F07F4393F07F4FC4
:1004680081F06051704732F07F4208BF704793F0C7
:100478007F4F04BF41F40021704730B54FF46074DA
:1004880001F0004521F000411CE700BF50EA0102DD
:1004980008BF704730B54FF000050AE050EA010286
:1004A80008BF704730B511F0004502D5404261EBF6
:1004B80041014FF4806404F132045FEA915C3FF437
:1004C800D8AE4FF003025FEADC0C18BF03325FEAD4
:1004D800DC0C18BF033202EBDC02C2F1200300FA85
:1004E80003FC20FA02F001FA03FE40EA0E0021FAAA
:1004F80002F11444BDE600BF70B54FF0FF0C4CF498
:10050800E06C1CEA11541DBF1CEA135594EA0C0F49
:1005180095EA0C0F00F0DEF82C4481EA030621EA84
:100528004C5123EA4C5350EA013518BF52EA0335BF
:1005380041F4801143F4801338D0A0FB02CE4FF071
:100548000005E1FB02E506F00042E0FB03E54FF0A1
:100558000006E1FB03569CF0000F18BF4EF0010E99
:10056800A4F1FF04B6F5007F64F5407404D25FEA95
:100578004E0E6D4146EB060642EAC62141EA555148
:100588004FEAC52040EA5E504FEACE2EB4F1FD0C8A
:1005980088BFBCF5E06F1ED8BEF1004F08BF5FEA08
:1005A800500E50F1000041EB045170BD06F00046BA
:1005B80046EA010140EA020081EA0301B4EB5C0467
:1005C800C2BFD4EB0C0541EA045170BD41F480115F
:1005D8004FF0000E013C00F3AB8014F1360FDEBF84
:1005E800002001F0004170BDC4F10004203C35DA60
:1005F8000C341BDC04F11404C4F1200500FA05F3E3
:1006080020FA04F001FA05F240EA020001F0004283
:1006180021F0004110EBD37021FA04F642EB0601F9
:100628005EEA430E08BF20EAD37070BDC4F10C0423
:10063800C4F1200500FA04F320FA05F001FA04F2E7
:1006480040EA020001F0004110EBD37041F10001D3
:100658005EEA430E08BF20EAD37070BDC4F12005DE
:1006680000FA05F24EEA020E20FA04F301FA05F246
:1006780043EA020321FA04F001F0004121FA04F2EE
:1006880020EA020000EBD3705EEA430E08BF20EABE
:10069800D37070BD94F0000F0FD101F000464000F8
:1006A80041EB010111F4801F08BF013CF7D041EA7A
:1006B800060195F0000F18BF704703F0004652007E
:1006C80043EB030313F4801F08BF013DF7D043EA4F
:1006D8000603704794EA0C0F0CEA135518BF95EA05
:1006E8000C0F0CD050EA410618BF52EA4306D1D18C
:1006F80081EA030101F000414FF0000070BD50EAAB
:10070800410606BF1046194652EA430619D094EA34
:100718000C0F02D150EA013613D195EA0C0F05D11E
:1007280052EA03361CBF104619460AD181EA030172
:1007380001F0004141F0FE4141F470014FF000002A
:1007480070BD41F0FE4141F4780170BD70B54FF0C5
:10075800FF0C4CF4E06C1CEA11541DBF1CEA135545
:1007680094EA0C0F95EA0C0F00F0A7F8A4EB050427
:1007780081EA030E52EA03354FEA013100F088801E
:100788004FEA03334FF0805545EA131343EA1263E7
:100798004FEA022245EA111545EA10654FEA00269C
:1007A8000EF000419D4208BF964244F1FD0404F555
:1007B800407402D25B084FEA3202B61A65EB0305B1
:1007C8005B084FEA32024FF480104FF4002CB6EB6E
:1007D800020E75EB030E22BFB61A754640EA0C00EE
:1007E8005B084FEA3202B6EB020E75EB030E22BF2E
:1007F800B61A754640EA5C005B084FEA3202B6EB6F
:10080800020E75EB030E22BFB61A754640EA9C002D
:100818005B084FEA3202B6EB020E75EB030E22BFFD
:10082800B61A754640EADC0055EA060E18D04FEABB
:10083800051545EA16754FEA06164FEAC30343EA5B
:1008480052734FEAC2025FEA1C1CC0D111F4801F28
:100858000BD141EA00014FF000004FF0004CB6E721
:1008680011F4801F04BF01430020B4F1FD0C88BFC0
:10087800BCF5E06F3FF6AFAEB5EB030C04BFB6EBCB
:10088800020C5FEA500C50F1000041EB045170BDBE
:100898000EF0004E4EEA113114EB5C04C2BFD4EBEB
:1008A8000C0541EA045170BD41F480114FF0000E6F
:1008B800013C90E645EA060E8DE60CEA135594EAEB
:1008C8000C0F08BF95EA0C0F3FF43BAF94EA0C0FEE
:1008D8000AD150EA01347FF434AF95EA0C0F7FF463
:1008E80025AF104619462CE795EA0C0F06D152EAB7
:1008F80003353FF4FDAE1046194622E750EA41069B
:1009080018BF52EA43067FF4C5AE50EA41047FF4AB
:100918000DAF52EA43057FF4EBAE12E780F00040DA
:1009280002E000BF81F0004142001FBF5FEA4103BF
:1009380092EA030F7FEA226C7FEA236C6AD04FEABF
:100948001262D2EB1363C1BFD21841404840414004
:10095800B8BF5B42192B88BF704710F0004F40F4B6
:10096800000020F07F4018BF404211F0004F41F4D2
:10097800000121F07F4118BF494292EA030F3FD09E
:10098800A2F1010241FA03FC10EB0C00C3F12003B1
:1009980001FA03F100F0004302D5494260EB400040
:1009A800B0F5000F13D3B0F1807F06D340084FEAAB
:1009B800310102F10102FE2A51D2B1F1004F40EBA0
:1009C800C25008BF20F0010040EA03007047490008
:1009D80040EB0000013A28BFB0F5000FEDD2B0FAA5
:1009E80080FCACF1080CB2EB0C0200FA0CF0AABFC8
:1009F80000EBC25052421843BCBFD0401843704766
:100A080092F0000F81F4000106BF80F4000001326B
:100A1800013BB5E74FEA41037FEA226C18BF7FEA42
:100A2800236C21D092EA030F04D092F0000F08BF84
:100A38000846704790EA010F1CBF0020704712F06B
:100A48007F4F04D1400028BF40F00040704712F1AA
:100A580000723CBF00F50000704700F0004343F00F
:100A6800FE4040F4000070477FEA226216BF084645
:100A78007FEA23630146420206BF5FEA412390EA08
:100A8800010F40F4800070474FF0000304E000BFFE
:100A980010F0004348BF40425FEA000C08BF7047AF
:100AA80043F0964301464FF000001CE050EA010273
:100AB80008BF70474FF000030AE000BF50EA010288
:100AC80008BF704711F0004302D5404261EB410175
:100AD8005FEA010C02BF84460146002043F0B6439A
:100AE80008BFA3F18053A3F50003BCFA8CF2083ABF
:100AF800A3EBC25310DB01FA02FC634400FA02FCC8
:100B0800C2F12002BCF1004F20FA02F243EB0200CE
:100B180008BF20F00100704702F1200201FA02FC30
:100B2800C2F1200250EA4C0021FA02F243EB020023
:100B380008BF20EADC7070474FF0FF0C1CEAD05267
:100B48001EBF1CEAD15392EA0C0F93EA0C0F6FD028
:100B58001A4480EA010C400218BF5FEA41211ED006
:100B68004FF0006343EA501043EA5111A0FB0131F2
:100B78000CF00040B1F5000F3EBF490041EAD371C7
:100B88005B0040EA010062F17F02FD2A1DD8B3F143
:100B9800004F40EBC25008BF20F00100704790F0B2
:100BA800000F0CF0004C08BF49024CEA502040EA04
:100BB80051207F3AC2BFD2F1FF0340EAC2507047CA
:100BC80040F400004FF00003013A5DDC12F1190F08
:100BD800DCBF00F000407047C2F10002410021FA7A
:100BE80002F1C2F1200200FA02FC5FEA310040F192
:100BF800000053EA4C0308BF20EADC70704792F00B
:100C0800000F00F0004C02BF400010F4000F013A42
:100C1800F9D040EA0C0093F0000F01F0004C02BF3D
:100C2800490011F4000F013BF9D041EA0C018FE7AC
:100C38000CEAD15392EA0C0F18BF93EA0C0F0AD0B2
:100C480030F0004C18BF31F0004CD8D180EA0100D8
:100C580000F00040704790F0000F17BF90F0004F71
:100C6800084691F0000F91F0004F14D092EA0C0F53
:100C780001D142020FD193EA0C0F03D14B0218BFE6
:100C8800084608D180EA010000F0004040F0FE402C
:100C980040F40000704740F0FE4040F440007047C8
:100CA8004FF0FF0C1CEAD0521EBF1CEAD15392EA47
:100CB8000C0F93EA0C0F69D0A2EB030280EA010C37
:100CC80049024FEA402037D04FF0805343EA1111D0
:100CD80043EA10130CF000408B4238BF5B0042F12E
:100CE8007D024FF4000C8B4224BF5B1A40EA0C00D3
:100CF800B3EB510F24BFA3EB510340EA5C00B3EB05
:100D0800910F24BFA3EB910340EA9C00B3EBD10FF2
:100D180024BFA3EBD10340EADC001B0118BF5FEA44
:100D28001C1CE0D1FD2A3FF650AF8B4240EBC2506D
:100D380008BF20F0010070470CF0004C4CEA50202E
:100D48007F32C2BFD2F1FF0340EAC250704740F47D
:100D580000004FF00003013A37E792F0000F00F06F
:100D6800004C02BF400010F4000F013AF9D040EAED
:100D78000C0093F0000F01F0004C02BF490011F481
:100D8800000F013BF9D041EA0C0195E70CEAD15379
:100D980092EA0C0F08D142027FF47DAF93EA0C0F60
:100DA8007FF470AF084676E793EA0C0F04D14B0244
:100DB8003FF44CAF08466EE730F0004C18BF31F0F6
:100DC800004CCAD130F000427FF45CAF31F00043F0
:100DD8007FF43CAF5FE700BF4FF0FF3C06E000BF89
:100DE8004FF0010C02E000BF4FF0010C4DF804CDAC
:100DF8004FEA40024FEA41037FEA226C18BF7FEABC
:100E0800236C11D001B052EA530C18BF90EA010FBD
:100E180058BFB2EB030088BFC81738BF6FEAE1704C
:100E280018BF40F0010070477FEA226C02D15FEAE8
:100E3800402C05D17FEA236CE4D15FEA412CE1D054
:100E48005DF8040B704700BF844608466146FFE71B
:100E58000FB5FFF7C9FF002848BF10F1000F0FBDFD
:100E68004DF808EDFFF7F4FF0CBF012000205DF8F6
:100E780008FB00BF4DF808EDFFF7EAFF34BF01207B
:100E880000205DF808FB00BF4DF808EDFFF7E0FF14
:100E980094BF012000205DF808FB00BF4DF808ED65
:100EA800FFF7D2FF94BF012000205DF808FB00BFC8
:100EB8004DF808EDFFF7C8FF34BF012000205DF8AA
:100EC80008FB00BF4FEA4002B2F1FE4F0FD34FF0CC
:100ED8009E03B3EB12620DD94FEA002343F000439F
:100EE80010F0004F23FA02F018BF404270474FF04D
:100EF8000000704712F1610F01D1420205D110F0D4
:100F0800004008BF6FF0004070474FF00000704786
:100F18007BB972B90029BEBF00204FF0004106E03E
:100F280008BF00281CBF6FF000414FF0FF3000F0F1
:100F380077B8ADF1080C6DE904CE002909DB002B68
:100F48001ADB00F0B5F8DDF804E0DDE9022304B0AF
:100F58007047404261EB4101002B1BDB00F0A8F811
:100F6800DDF804E0DDE9022304B0404261EB410111
:100F7800524263EB43037047524263EB430300F072
:100F880097F8DDF804E0DDE9022304B0404261EBA4
:100F980041017047524263EB430300F089F8DDF8E2
:100FA80004E0DDE9022304B0524263EB43037047D7
:100FB80053B94AB9002908BF00281CBF4FF0FF31B8
:100FC8004FF0FF3000F02CB8ADF1080C6DE904CEFD
:100FD80000F06EF8DDF804E0DDE9022304B07047A4
:100FE800D0B5FFF731FA0C4B002206460F46FFF743
:100FF80083FA00F017F80446FFF704FA074B0022BB
:10100800FFF77AFA02460B4630463946FFF7BCF836
:1010180000F008F82146D0BD0000F03D0000F04186
:10102800704700BF4A0011D212F5001211D20DD537
:101038006FF47873B3EB62520ED44FEAC12343F0D6
:10104800004343EA505323FA02F070474FF0000080
:10105800704750EA013002D14FF0FF3070474FF02F
:1010680000007047430803F05533C01A00F03333CB
:10107800800800F03330184400EB10104FF00133B3
:1010880000F00F305843000E704710B50021044699
:10109800FFF7F0FE20B92046BDE81040FFF7A0BFDB
:1010A80004F10040FFF79CFF404261EB410110BD95
:1010B8002DE9F04786468C460846089E1546744634
:1010C8001946002B40F0C2808542B2FA82F245D917
:1010D8004AB1C2F1200300FA02FC2EFA03F395404C
:1010E80043EA0C0C94404FEA154EA8B2BCFBFEF83C
:1010F800230C0EFB18CC08FB00F943EA0C43994576
:1011080028D9EB1808F1FF3704D2994502D9A8F17C
:1011180002072B44A3EB0903A4B2B3FBFEFC0EFBAE
:101128001C330CFB00F044EA0344A04214D92C19E8
:101138000CF1FF3304D2A04202D9ACF102032C44D3
:10114800241A43EA07401EB1D44000233460736078
:10115800BDE8F0874746DDE76346F1E792BB431BEE
:1011680001214FEA154EAFB2B3FBFEFC200C0EFB7B
:101178001C330CFB07F840EA0343984562D9EB1887
:101188000CF1FF3004D2984502D9ACF102002B448F
:10119800A3EB0803A4B2B3FBFEFC0EFB1C330CFB51
:1011A80007F744EA0344A7424ED92C190CF1FF3340
:1011B80004D2A74202D9ACF102032C44E41B43EA4F
:1011C8000040C0E7C2F1200320FA03F195409040A7
:1011D8002EFA03F303434FEA154EAFB2B1FBFEFC00
:1011E8000EFB1C10190C0CFB07F841EA004188455E
:1011F80004FA02F422D969180CF1FF3004D28845A8
:1012080002D9ACF102002944A1EB08019BB2B1FB61
:10121800FEFC0EFB1C110CFB07F743EA01439F423F
:101228000ED9EB180CF1FF3104D29F4202D9ACF170
:1012380002012B44DB1B41EA004192E76046E3E7E9
:101248006146F7E76046A3E76346B7E7834206D9F6
:1012580016B9002108467BE7C6E900E0F9E7B3FACA
:1012680083F78FB9834201D3724508D8BEEB0204D5
:1012780060EB030301209C461EB9002168E738464D
:10128800FAE7C6E9004CF8E7C7F1200CBB4022FAA0
:101298000CF41C432EFA0CF120FA0CF3B84001436D
:1012A8004FEA14490EFA07F5B3FBF9F81FFA84FE62
:1012B80009FB18300B0C08FB0EFA43EA00439A4569
:1012C80002FA07F240D9E31808F1FF3004D29A4530
:1012D80002D9A8F102002344A3EB0A0389B2B3FBA5
:1012E800F9F809FB183308FB0EFE41EA03418E4565
:1012F8002CD9611808F1FF3304D28E4502D9A8F120
:101308000203214443EA0040A0FB0298A1EB0E012E
:101318004145CE46434602D306D14D4504D2B9EBEA
:10132800020E68EB04030138002EA6D0B5EB0E02BE
:1013380061EB030101FA0CFC22FA07F34CEA030300
:10134800F940C6E9003198E74046C5E74346D9E782
:1013580010F8012B11F8013B012A28BF9A42F7D057
:10136800D01A7047034611F8012B03F8012B002A05
:10137800F9D17047000000002DE9F04F87B0324FD7
:10138800BB68039304AA5B68012138469847002884
:1013980033DBDDE9044A42F21073A4FB03B503FB17
:1013A8000A55294626A3D3E900235846FFF700FE2D
:1013B800DFF898804FF0FF39D94578EB05050646E8
:1013C80035D341F28833A4FB035403FB0A44214676
:1013D8001BA3D3E900232846FFF7EAFDA94578EBCC
:1013E8000404034623D3864224D300220092039A9E
:1013F8000121146838463246A047154B0193B0FACC
:1014080080F0144B0093144A14494FF4A673400912
:1014180000F066F90021642007F00CFE104808F07F
:10142800BBFF104807B0BDE8F04F08F0B5BF6FF03C
:101438008500E2E76FF01500DFE700BFAFF300803B
:1014480000CA9A3B00000000F0DA0008FFC99A3B86
:101458000FEC000808EE00082CE70008FBE700087E
:1014680028EC000853EC000870B5144606460846F8
:10147800FFF70EFB2146FFF75FFBFFF706FE0E4D59
:1014880080FB05450AA3D3E9002320462946FFF738
:101498003FFD0A4A3060002320462946FFF738FD01
:1014A800064A0023FFF734FD726070BDAFF3008079
:1014B8000010A5D4E80000003AA3950040420F00B0
:1014C80070B5144606460846FFF7E2FA2146FFF7CC
:1014D80033FB1349134DFFF7E3FBFFF7D6FD80FB02
:1014E80005450BA3D3E9002320462946FFF710FD45
:1014F80009A3D3E90023306029462046FFF708FDF9
:10150800094A0023FFF704FD726070BDAFF3008045
:1015180000209BF35E10000080A81201000000006C
:1015280000002041D8EF2F0040420F0000000000CB
:10153800032970B504460D4608D0072952D05C48E7
:10154800572108F04DFF6FF0850026E0BAB3072A4F
:10155800F9D158681A68574BC117C2FB0301012813
:1015680071F100033BDB544BC01841F100014CA35F
:10157800D3E90023FFF7CCFC022826690ED01028F7
:101588000ED004280ED0082829D12946204609F073
:10159800ABFC002808DA6FF0040070BD0025F4E702
:1015A8000125F2E70225F0E7444B33F815103D20FA
:1015B800A1FB0001FFF782FAF0600020EDE719882F
:1015C8003F4B33F8020B814206D1D1B2204603F0DB
:1015D80059FC0028F1DADEE701320C2AF1D16FF06C
:1015E8001500DAE7002A4BD0072AACD15A681D68E3
:1015F8003048D11713460A46C5FB0032B425A3FB71
:101608000501012B05FB021172F1000228DB2D4BAD
:10161800C01825A3D3E9002341F10001FFF778FCA6
:10162800FA2825D0B0F5FA7F24D0B0F57A7F23D0F8
:10163800B0F5FA6F22D07D28D1D10425294620465D
:10164800266909F061FC0028A5DB1F4B33F815104B
:1016580041F21710A1FB0001FFF730FAF061ACE787
:101668001A4BC01861F100010FA3D3E90023D5E795
:101678000025E3E70125E1E70225DFE70325DDE7AC
:1016880019880F4B33F8020B814204D1D1B220469E
:1016980003F0DCFB9DE701320C2AF3D19FE700BF82
:1016A8003AA3950000000000D8EF2F0000000000CA
:1016B8001007010840420F009DD14A0006E70008C4
:1016C8000EE70008ECF71700FCE600081408E8FF2E
:1016D800024A136801331360704700BFA409002051
:1016E8007FB50E461D460446A0B90AAB0B480393C6
:1016F80008F0C6FE089B009601462A46084808F0EE
:101708004BFE0399099800F0C1FB064808F044FE17
:1017180001F0EEFA204604B070BD00BF2CE70008C7
:1017280076E700081B140108F7B500F007FB00F086
:1017380013FB204C204F214E214D0196B0FA80F02A
:1017480022463946AB2300954009FFF7C9FF00F050
:10175800FBFA00F001FB00F1FF3CDCF1000040EB7C
:101768000C0022461749AE23CDE90056FFF7B8FF13
:1017780000F0EAFA00F0F0FAA0F1020EDEF1000043
:10178800224640EB0E001049B123CDE90056FFF781
:10179800A7FF00F0D3FA00F0DFFAB0FA80F0CDE945
:1017A8000056B423224639464009FFF799FF03B093
:1017B800F0BD00BF2CE700089EE700081C140108D4
:1017C800DBEE0008BDE70008DCE7000870B588B06C
:1017D8001422002103A80CF038F84FF48043049336
:1017E8000DF10A030593022306930C238DF81C3090
:1017F8001F4B186883681F4D5B681F4E03A99847E5
:101808001E4B0193B0FA80F04FF497732A461C4997
:1018180000964009FFF764FFBDF90A4019482146C0
:1018280008F0BAFD184840F2EE624FF46F7108F004
:10183800B3FD164B1649B4F56F7FCDE900632A4610
:1018480040F23B13B4BF00200120FFF749FF40F2EC
:10185800EE60104B10498442CDE900632A4640F2FD
:101868003D13CCBF00200120FFF73AFF08B070BD40
:10187800A00900202CE700082AEE000810E800085C
:10188800FBE7000823E8000832E8000887E80008BA
:101898004CE80008E8E80008ADE80008F0B5214F7A
:1018A800214D3868214C224E85B008F040FD214B6F
:1018B8000193B0FA80F0EE232A46214600964009AB
:1018C800FFF70EFF02AA38681A2108F034FD1A4BF8
:1018D800B0FA80F0CDE900632A462146F123400999
:1018E800FFF7FEFE029A039C14484FF47A7394FBA8
:1018F800F3F403FB0244214608F04EFD104808F0BB
:101908004BFD04F11E000F4B0F496428CDE900631D
:101918002A464FF0FB038CBF00200120FFF7E0FEB2
:1019280005B0F0BDA80900202CE70008FBE7000877
:101938006AEE00080EE9000839E9000869E90008BC
:1019480080E90008C1E900089EE90008F0B51A4FCF
:101958001A4C38681A4E1B4D85B008F0E8FC1A4B33
:101968000193B0FA80F0D823224631460095400909
:10197800FFF7B6FE02AA3868102108F0DCFC134B0A
:10198800B0FA80F0CDE9005322463146DB23400906
:10199800FFF7A6FE02980E4B0E4928308C28CDE999
:1019A800005322464FF0E1038CBF00200120FFF7CF
:1019B80097FE05B0F0BD00BFAC0900202CE7000879
:1019C800FBE7000890EE0008E5E900080FEA0008C8
:1019D80066EA00083EEA0008F0B51A4F1A4C386863
:1019E8001A4E1B4D85B008F0A2FC1A4B0193B0FAB1
:1019F80080F0C1232246314600954009FFF770FE6A
:101A080002AA38680D2108F096FC134BB0FA80F052
:101A1800CDE9005322463146C4234009FFF760FE52
:101A280002980E4B0E490A303C28CDE90053224655
:101A38004FF0CA038CBF00200120FFF751FE05B00C
:101A4800F0BD00BFAC0900202CE70008FBE7000848
:101A5800B4EE0008E5E9000885EA0008DBEA0008BA
:101A6800B7EA000837B51D4C1D4D1E4B01932246A1
:101A78001D4900959B230120FFF732FE1B4B1C4993
:101A8800CDE9005322469C230120FFF729FE194B7C
:101A98001949CDE9005322469D230120FFF720FE76
:101AA800164B1749CDE9005322469E230120FFF724
:101AB80017FE144B1449CDE9005322469F230120F9
:101AC800FFF70EFE114B1249CDE900532246A02321
:101AD8000120FFF705FE03B030BD00BF2CE700086A
:101AE800FBEE00080AEB0008FDEA000822EB0008FC
:101AF80016EB000840EB00082DEB000862EB00082D
:101B080052EB000884EB000871EB0008B2EB000808
:101B180099EB0008094B07B5094818600BF0C8FC99
:101B2800084B0193084B0093084A09493823FFF7EB
:101B3800D7FD002003B05DF804FB00BFAC0900200E
:101B480004DB0008F4EB00083EEF00082CE700086F
:101B5800CDEB00082DE9F347274F00233B604FF4F6
:101B68007A784FF00009254E00220023CDE90023A2
:101B7800304642464B4608F03FF84946404607F093
:101B880059FA38681E4CDFF87CA01F4B1F4D019393
:101B980000F1FF3CDCF1000000954FF4877322460A
:101BA800514640EB0C00FFF79BFD30460BF06AFDF9
:101BB8004946404607F03EFA3868154B00F1FF3EAB
:101BC800DEF10000CDE90053224640F217135146DA
:101BD80040EB0E00FFF784FD706B0E4B0E49B0FA18
:101BE80080F0CDE90053224640F21B134009FFF76D
:101BF80077FD02B0BDE8F087A40900201005002099
:101C08002CE7000878EC00089EEC000848EE000875
:101C1800B9EC0008F3EC0008DBEC000810B5064C42
:101C280020460BF045FC28B92168044808F0B4FBAD
:101C380001F05EF8002010BDF0DA000809ED000898
:101C480007B50A480BF034FC094B0193094B009384
:101C5800094A0A495B23FFF743FD0949094800225D
:101C68000BF004FD002003B05DF804FBDCDA00088B
:101C780052ED000824EF00082CE700082CED0008BE
:101C8800D9160008100500207FB5144E144830609E
:101C9800144C154D0BF00CFC144B01931449009592
:101CA8006A232246FFF71CFD4FF4816302930E233B
:101CB8003068ADF80C30836802A91B6898470D4B53
:101CC8000D49B0FA80F0CDE900532246742340094B
:101CD800FFF706FD002004B070BD00BFA00900207A
:101CE8008CDA00082CE700081AEF000890ED0008CD
:101CF8006CED0008A8ED0008FBE70008094B07B5E4
:101D0800094818600BF0D4FB084B0193084B00936B
:101D1800084A09494423FFF7E3FC002003B05DF8B3
:101D280004FB00BFA809002090DB0008ECED0008C8
:101D380030EF00082CE70008C4ED0008014B002232
:101D48001A607047B0090020024A13680133136013
:101D5800704700BFB0090020014B1868704700BFEA
:101D6800B0090020B2F5802F2DE9F0410ED33C498F
:101D78003C4A3D4840F2EB1308F024FB3B4808F08E
:101D880021FB40F2EB11374808F013FB042A0CD86A
:101D98003749344A34484FF4F97308F013FB35488F
:101DA80008F010FB4FF4F971EDE7043ACD1D8E18D9
:101DB80025F0070526F00706761B172E4FEAD607EB
:101DC8000CD82D49274A284840F2FB1308F0FAFAA4
:101DD800284808F0F7FA40F2FB11D4E7B7FA87F47D
:101DE800C4F12002C4F12404A4000734E408631CED
:101DF8004FF00008BB420560AF60C5F80C800CD9F5
:101E08001E49184A18484FF4037308F0DBFA1948BA
:101E180008F0D8FA4FF40371B5E74146920005F18E
:101E280010000BF012FD630043F001036B8005EB1B
:101E3800C4023B1B5900A5F800805180AA1925F857
:101E48003440A2F80280AB5305EBC70321465A88F9
:101E580042F001025A802846BDE8F04108F073BA02
:101E680026F100083BF000086FF000083CF100087C
:101E780053F1000874F100088DF10008B6F100086C
:101E8800014B1B68184700BFC000002030B585B063
:101E980004460D461022002168460BF0D6FC0223AA
:101EA8008DF802302A46044B01932146684607F014
:101EB800E1FF05B030BD00BF891E0008014B186066
:101EC800704700BFC000002080B505460E46174683
:101ED800984607F0DDF803460BF0C0FCDFF81890D1
:101EE800044649F80030424630463946A84754F877
:101EF800090000F021FB00BF08000000034A5368F6
:101F080043F0020353600020704700BF002004E044
:101F1800084B1A6842F400721A601A6842F4806228
:101F28001A601A6842F480721A60034B034A1A60F6
:101F380000207047002002401402002000093D00E4
:101F4800014B03600020704724E0000837B50546C0
:101F58000C46C9B18B680093D1E90023124845218A
:101F680008F03EFA63690093D4E903230F4845213A
:101F780008F036FAE2690E48452108F031FAA269FC
:101F88000C48452108F02CFA012D06D1EFF3058203
:101F98000948103A452108F023FA2146284603B09B
:101FA800BDE8304005F022B9F6F100082AF2000831
:101FB8005EF2000872F20008A5F2000830BFFFF7D1
:101FC800FDBF00BF2DE9F0410B4EDFF8308006EB76
:101FD8000807CC1B05463246094920460BF027FC6A
:101FE800A01942460021083C0BF02FFCC5F894408C
:101FF80007F10800BDE8F0810000000004000000BF
:1020080014E00008074A936893F90E10002907DBCB
:10201800526993421FBF044A536843F08053536088
:10202800704700BFC00D002000ED00E02DE9F84327
:102038003F4D804689463F484521174608F0D0F96C
:10204800AB6ADA0626D53C48452108F0C9F91124BF
:10205800AB6A1B0704D53948452108F0C1F9122499
:10206800334DAB6A9E0717D53548452108F0B8F9B6
:102078006E6BAB6A1C0645D532483246452108F0DE
:10208800AFF9B9F1000F03D0AB6A23F08003AB625C
:10209800132403E01024DBE76FF01506244DAB6A28
:1020A800D80704D52848452108F09AF91424AB6AC2
:1020B800990604D52548452108F092F915241C4DA8
:1020C800AB6ADA0602D4AB6A9B070AD56B681805B7
:1020D80007D54146304600F033FBB0B180F309889C
:1020E8000224134B9A6A920642BF5A6A22F400529B
:1020F8005A629A6A42F0FF029A6200233B702046B5
:10210800BDE8F8836FF01506C2E7AB6AD906E8D5D3
:102118000F49104A104840F25D1308F053F90F4870
:1021280008F050F90B4840F25D1108F042F900BF81
:1021380000ED00E0BDF20008D8F2000810F3000836
:1021480028F3000845F3000860F3000884F300084A
:10215800EAF30008B8F300086FF0000834F4000848
:1021680010B5204C2048452108F03AF9A36A990196
:1021780036D51E48452108F033F91E20A36ADA0136
:1021880004D51B48452108F02BF91F20154CA36ADC
:102198001B0304D51748452108F022F92120A36A1A
:1021A800590304D51448452108F01AF922200D4C8A
:1021B800A36A9A0304D51148452108F011F9232090
:1021C800A36ADB0304D50E48452108F009F9242049
:1021D800044A936A6FEA03436FEA1343936210BD9C
:1021E8001D20CBE700ED00E057F4000874F4000868
:1021F8008CF40008ABF40008CEF40008F8F40008EA
:1022080017F5000870B5284C06460D4627484521A5
:1022180008F0E6F8A36AD9043BD52548452108F01B
:10222800DFF81720A36A1A0504D52248452108F0CB
:10223800D7F818201C4CA36A9B0511D51E484521C8
:1022480008F0CEF8A26BA36A180408D51B484521EC
:1022580008F0C6F81EB1A36A23F40043A36219204C
:10226800114CA36A590504D51548452108F0B8F85A
:102278001A20A36ADA050ED51248452108F0B0F8ED
:102288001B20094A936A43F47F43936200232B700F
:1022980070BD1620C6E7A36A9B04F2D50A484521FB
:1022A80008F09EF81C20ECE700ED00E047F5000878
:1022B80062F5000810F3000878F5000896F50008A4
:1022C800B0F50008D0F5000884F30008F0B5744BA9
:1022D800044658688BB0C0F30803002585F31188BD
:1022E800BFF36F8F02F07F46B6F17F4F07D102F040
:1022F8000C06082E12D16B48452108F071F86A497E
:102308006A4A6B484FF48B6308F05CF8694808F038
:1023180059F84FF48B61654808F04BF816074CBF25
:102328000C460125002CEAD00026DA1E8DF807603D
:10233800092A00F2A480DFE802F005979B7AA2A29E
:10234800A2A2A29F5C48452108F04AF88DF80760D0
:10235800534EF36A9A0705D55848452108F040F8C6
:10236800002329E0F36A002B02DA55484521F5E7F6
:10237800F36A5B006BD55348452108F031F873695F
:10238800A26943F480737361BFF34F8FBFF36F8FFC
:10239800736932F8022C23F480737361BFF34F8F93
:1023A800BFF36F8F4DF602739A4227D122684648D1
:1023B800452108F015F823689DF80720E2B902AE18
:1023C80004F1200720686168324603C20834BC4221
:1023D8001646F7D1099A002D5DD0C2F3080121B93C
:1023E8006FEA52226FEA42220992102B02A934BFE7
:1023F80018460020FFF7AAFD0BB0F0BDB36ADBB2A8
:102408003BB10DF1070201212046FFF70FFE0346FD
:10241800D2E7B36A13F47F4F05D00DF1070101200D
:10242800FFF7F0FEF3E7B36AB3F5803F02D3FFF797
:1024380097FEECE725491D4A1D4840F22A3307F06C
:10244800C1FF234807F0BEFF40F22A3163E71F4966
:10245800164A174840F22E3307F0B4FF1D4807F01C
:10246800B1FF40F22E3156E70DF107020021CBE70C
:102478000DF107010020D3E7174845216EE71749FA
:10248800174A10F4F87F08BF0A461648103B452142
:1024980007F0A6FF64E722F4FF7222F00102A3E727
:1024A80000ED00E01BF600084BF60008B8F3000842
:1024B8006FF000085EF600089CF60008B8F6000801
:1024C800DEF60008F1F6000815F70008AB09010868
:1024D80036F700085AF700088AF70008EDF50008F3
:1024E80002F60008B3F70008024A536943F01003E4
:1024F8005361704700ED00E0EFF30880EFF30981C6
:1025080001B57246FFF7E2FE01BD00BF102080F35F
:10251800118808484FF40461401880F30988EFF3E4
:1025280014800221084380F31488BFF36F8F00F0F2
:10253800C7F8000080120020084B9B6883420BD12B
:10254800EFF3058343B1064B5A6842F080525A6054
:102558005A6A22F400425A6206F0A0BDC00D00205B
:1025680000ED00E00A4A93686FF00A01C3F89C1076
:102578000849C3F898004B6843F080534B60002328
:1025880083F31188BFF36F8F9368D3F89C0070476B
:10259800C00D002000ED00E010B50446EFF31183F4
:1025A800102383F31288BFF36F8F0C4B5869986020
:1025B8000B4B4FF000625A600A4BD0F894201A6017
:1025C8000022D0F89830C0F8982083F31188BFF320
:1025D8006F8F00F021F9204610BD00BFC00D00200C
:1025E80000ED00E0B40900200B498A684FF0300084
:1025F8001044EFF3098C80E8F01F74467046FFF72B
:10260800CBFFA64604498A6802F1300090E8F01F23
:102618008CF3098870470000C00D00201EF0040FDD
:102628000CBFEFF30880EFF30980816911F8021CF1
:102638000229FFD001B507F0E0FE01BD40B2002835
:1026480007DB044A4109012300F01F00834042F8D8
:102658002130704700E100E038B54B1C0F2B0446D1
:102668000D460FD9114A12491248582307F0AAFEFD
:10267800114829460F23224607F0A4FE0B4858218B
:1026880007F097FE40B20028ACBF00F160400B4A4B
:102698004FEA0313B8BF00F00F00DBB2AABF00F582
:1026A8006140135480F8003338BD00BFCBF70008F1
:1026B80002F800086FF000081DF8000814ED00E0AB
:1026C8000F4A08B50F4B22F07F029A60BFF34F8F75
:1026D800BFF36F8FD3F8882022F47002C3F88820E4
:1026E800EFF3148323F0040383F31488BFF36F8F8D
:1026F80004F070FE06F058FF00F064F804F0B2FE33
:102708000000000800ED00E042F8203C009B42F881
:102718001C3C0A49019B42F8183C029B42F8143CB5
:1027280021F001014FF0807342F8043C42F8081C84
:102738000023203A0265C0F898307047D11E00087F
:102748000A4A0346906878B113F1160FD0F884004E
:1027580005D0A0F140029A4205D8834203D28142B3
:1027680028BF002070470020704700BFC00D002020
:1027780008B515460C4A0D4B9060D0F894201A60A5
:102788000E4600F049F82C4686F309884FF0000001
:10279800074B984720464FF000014FF000024FF0DA
:1027A8000003044C204700BFC00D0020B4090020DE
:1027B80021A40008D11E0008014B10221A6170479D
:1027C80000ED00E0044800231021C2180133522B09
:1027D80082F80013F9D1704700E100E008B5EFF383
:1027E8000583064A103B02EBC30152F833004968DF
:1027F8008847BDE80840FFF705BC00BFA4DB000818
:10280800024B034A0348012100F086B800800120EA
:102818000000002024E00008D0F88420054B403A4E
:102828001A60054A4021C3E901121846012100F047
:1028380099B800BFB809002000000B1508B5104A68
:10284800D2F89030C3F30723013B984207D90246D8
:1028580045210C4807F0C4FD6FF0150008BDC2F80B
:1028680098000B6823F01F03034343F01003C2F8DA
:102878009C308B6843F00103C2F8A030EEE700BF3C
:1028880000ED00E061F80008F0B50F4685B01C4681
:1028980005460026BE420CDA686808B38CB1431EB0
:1028A800184209D010483246452107F099FD6FF0CB
:1028B8001502104605B0F0BD1F28F3D929680B4250
:1028C800F0D12B68019307F0BBFDAB6801A9034366
:1028D800D0B20393FFF7B2FF10F1160FE7D0421CF6
:1028E80001360C35D6E700BF8CF80008044B0522EA
:1028F800C3F89420BFF34F8FBFF36F8F704700BFAB
:1029080000ED00E0BFF35F8F024B0022C3F8942074
:10291800704700BF00ED00E038B50D4D01232A785F
:102928000C46FFF7B1FF287016300FD1094A0A4943
:102938000A4840F2691307F045FD0948214607F0A7
:1029480041FD044840F2691107F033FD38BD00BF6E
:102958002E0E0020B4F80008AB0901086FF000083B
:10296800E3F8000810B5144A002312780C46FFF764
:102978008BFF10F1160F08D0104A0021D2F89030C2
:10298800C3F30723984210DB10BD0D4A0D490E48CA
:102998004FF4C47307F016FD0C48214607F012FDEA
:1029A80007484FF4C47107F004FDC2F89800C2F854
:1029B800A0100130E2E700BF2E0E002000ED00E07D
:1029C800B4F80008AB0901086FF000080FF9000817
:1029D8002DE9F0437A4C7B49D4F890300E68C3F364
:1029E80007239E4285B013D9774A784978484FF42F
:1029F800D07307F0E7FCD4F8902076483146C2F34C
:102A0800072207F0DFFC4FF4D0716F4807F0D1FCC4
:102A1800FFF778FF49680022964201F10C012AD19C
:102A28006D4DDFF8B8812E706846FFF789FA0026E9
:102A38000746B74232D12B7861490020D1F890205F
:102A4800C2F307229342C0F2B080FFF74FFFD1F8DC
:102A58009030C3F30723082B00F0AD8060495A4A31
:102A68005B484FF4047307F0ADFC5E4807F0AAFC1E
:102A78004FF40471C9E7C4F8982051F80C3C23F0CE
:102A88001F03134343F01003C4F89C3051F8043C6F
:102A980043F00103C4F8A0300132BDE7009A02EB0D
:102AA80006133101D3F80C9009EA0804B4F5000FB5
:102AB80067D019D8B4F5001F3DD0B4F5800F54D0B5
:102AC800B4F5801F20D04848452107F089FC3F49CC
:102AD8003D4A3F484FF4E57307F074FC434807F05C
:102AE80071FC4FF4E57190E7B4F1807F53D0B4F1F5
:102AF800007FE8D198685C68525807F0A1FCCDE9DE
:102B0800014240F480200AE098685C68525807F057
:102B180097FCCDE9014240F0885040F43020039002
:102B2800287801A9FFF78AFE0028D0DB2B7801332B
:102B38002B7001367DE798685C68525807F080FC76
:102B480040F0885040F4002019F0010FCDE901420F
:102B58000390E5D026491C4A1D486C2307F032FC37
:102B6800244807F02FFC6C214FE798685C6852589E
:102B780007F066FC40F0E060CDE9014240F4003027
:102B8800CDE798685C68525807F05AFCCDE90142D5
:102B980040F08270C3E798685C68525807F050FCB0
:102BA800CDE9014240F08870B9E7C1F89830C1F822
:102BB800A000013342E7002005B0BDE8F08300BF64
:102BC80000ED00E030E00008B4F80008AB090108A7
:102BD8006FF000083CF900082E0E00200000F0FFFE
:102BE80016FA000866FA0008C5F90008ECF90008AA
:102BF80070F9000896F9000808B5024B1B68984759
:102C0800002008BDC4090020034B044A18609378CB
:102C180043F0020393707047C4090020C4000020E9
:102C280008B50649064821F00701C1F1005202F52E
:102C3800C032FFF797F8002008BD00BFC724002066
:102C4800C809002070B5084C084E0546B44202D3A6
:102C58000024204670BD21682846FEF779FB00282D
:102C6800F7D01C34F2E700BF34DE0008DCDE0008D1
:102C78002DE9F84307460D461446DFF84080104E0C
:102C8800DFF84090002388F800304E450ED3BB682B
:102C98000BB1204698470C4B02221A702046AB68AD
:102CA8009847012388F80030BDE8F883336813B1EA
:102CB8002146284698470836E7E700BF300E00202F
:102CC8007CDF00087CDF00082002002008B50648E9
:102CD800FFF732FC0AF072FC28B90AF0BFFD034B7B
:102CE8001858FFF729FC08BD480500200800000017
:102CF80008B50E4B1B7873B15A1E012A0FD9052B44
:102D080096BF0B4A0B4952F823100B4807F044FBB7
:102D18000A4B022201E00A4B05221A7008BD084B33
:102D280002221A70BDE80840FFF7D0BF2002002039
:102D380050E00008A2FA0008ACFA0008310E0020A2
:102D4800300E002070B5054639B101F11404084E63
:102D5800B44204D30024204670BD064CF7E721682E
:102D68002846FEF7F5FA0028F5D01434F0E700BF3E
:102D78007CDF0008DCDE00082DE9F04F8BB0074649
:102D8800099140B9964B02221A704FF0FF3840461D
:102D98000BB0BDE8F08F0168924807F0FDFA924841
:102DA80007F0FAFA914B00241C70DFF844A28AF865
:102DB8000040904B1C709AF80030052B03D07C68BB
:102DC8000CB1A04704464FF00009C8464E46099B7F
:102DD8009945C0F2E8803968B8F1000F40F0FD80ED
:102DE800854807F0D9FA834B04221A703B69002BF7
:102DF800CDD020469847CAE7804B71689B68284623
:102E08009847002800F0CB8032697D481368013369
:102E18001360716807F0C0FA764A0123137003F053
:102E2800F1FA784B18604FF0FF324FF0FF33CDE9DD
:102E380006234FF0FF330822CDE90332CDE90164C0
:102E4800714B724900974FF48062714805F0AEF8F3
:102E5800716811B16E4805F017F89AF80030043B14
:102E6800012B09D96A480AF0B1FB69484FF0FF32D3
:102E78004FF0FF3306F080F9DFF878B103238BF8C1
:102E88000030FB680BB120469847624D624A06E065
:102E98006B681BB12146304698475F4A0835954212
:102EA800F6D303F0AFFA574B1B68C01A5B4B984236
:102EB80046D800F59C305A4B7F30B0FBF3F0594BA5
:102EC800186033691A69824238BF18619AF800504D
:102ED8000523022D8BF80030534B04D0052D02D06A
:102EE8001A78002A36D000221A7001254848DFF8DF
:102EF8003CB1FFF721FB736808934D4B9B4530D3DA
:102F0800484B4C481A684FF47A71B2FBF1F301FB55
:102F180013224949009251F82510089A07F03CFA03
:102F2800314807F039FA022D336934D12F4A127823
:102F380012B12B4A012111705A6801325A602EE0F1
:102F48003E4B374AC0182CBF012100210023FEF751
:102F58002FF8B4E7033D012D8CBF002501256D0036
:102F6800C4E70899DBF80400FEF7F2F960B93168A4
:102F7800DBF80000FEF7ECF930B99BF8083033B104
:102F8800012BBDD1023D03E00BF10C0BB5E7013D70
:102F980018BF0125B4E7D5B9DA680132DA60104BF9
:102FA8001B78022B10D03D6831462846FFF7CAFE31
:102FB800064600287FF420AF094B1A7822B9B8F1E9
:102FC800000F01D001221A7009F10109FFE69A6881
:102FD80001329A6008F10108E1E7194801E700BFEA
:102FE800310E0020DFFA0008F5FA00082F0E002045
:102FF800300E00202002002063FB000878E0000863
:103008003AFB0008D8090020792C0008400E00205F
:10301800480500207CDF00087CDF000880C7FEFF31
:1030280080380100D4090020320E002034DE000868
:1030380034DE000846FB000868E000087F3801001D
:103048007BFB00082DE9F74FDFF8A880019398F87B
:1030580000300090022B17464AD0274DDFF89CA07D
:103068000026274B9D4220D3304603B0BDE8F08FA1
:103078000B691C600B695C600B699C600B69DC6008
:103088000B691C612868FFF75DFE01460028EFD137
:10309800D5F818B004468146A74209DC98F80030F4
:1030A800022B4E44E0D01C35DBE700210C46E9E753
:1030B800DAF8043000982946984798B101992846CB
:1030C800FFF75AFEDBF800300133CBF80030DBF8AD
:1030D8000830002818BF013309F10109CBF808307E
:1030E8000134D9E7DBF804300133CBF80430F7E7D3
:1030F8000026B9E7310E002034DE000878E0000829
:10310800DCDE00082DE9F843224C234EDFF88C80E2
:103118000127B44212D3224C224EDFF88C90B442DD
:1031280016D317B9214B01221A701D4C204D1F4F81
:103138004FF00108B4421AD3BDE8F883A3691D68AB
:1031480025B92168404607F027F92F461C34E0E7E7
:10315800D4F800804046FFF775FD054628B9616838
:103168004246484607F018F92F461434D7E7226933
:10317800D2E902310B44516812680B44934206D0DD
:10318800D4E90012284607F007F987F800801434BC
:10319800D0E700BF34DE0008DCDE000891FB000841
:1031A800DCDE00087CDF0008B6FB0008310E0020DA
:1031B800F8FB000810B4024C2468A44610BC604711
:1031C80078E000082DE9F04F8BB007F04EF9614820
:1031D800614EDFF888A107F0DFF8614B9E4215D3F6
:1031E800604807F0D9F8604B60481B78002B00F066
:1031F800A98007F0D1F85E4807F0CEF85D495E482F
:1032080007F0CAF800200BB0BDE8F08F002533683E
:103218002C46A8462F46AB46A94621461846099390
:10322800FFF790FD099B0446002843D1B84554D0C8
:1032380052485349A8EB070201FB09F16FF0090E48
:1032480091FBF2F14FF47A7291FBF2F200FB02115A
:10325800BBF1000F4FF00A0091FBF0F00EFB0011DC
:10326800D4BF4FF0000C4FF0010C042900DD0130F1
:103278004FF47A7EB5FBFEF10EFB1155CDE905152D
:10328800CDE903780093CDE9019B03465AF82C1049
:103298003C483D4D3D4FDFF8F88007F07DF821466A
:1032A8003068FFF74FFD0446D8B93A4807F074F87C
:1032B8001C3692E7226911690D44D2E90001814266
:1032C80008F1010801D10137A7E7D26890420CBF85
:1032D80009F101090BF1010B9FE74FF0020C0246BF
:1032E800C6E7D4F810E0DEF81000DEF800104FF45E
:1032F8007A79B0FBF9FC09FB1C00DEF804908945DB
:10330800D4E9002311D0DEF80CE0714516D0BEF1E7
:10331800000F15D00191A1EB0E01CDE902C000917B
:103328004046394607F038F8B9E70221CDE900C030
:103338005AF82110284607F02FF8B0E70021F5E7E2
:103348000121F3E707F028F8094807F025F81249A2
:1033580055E700BF0DFC000834DE000868E00008EF
:10336800DCDE000817FD0008310E0020F5FA000821
:103378003DFD000866FD00086DFD000818FCFFFF14
:10338800A086010036FC0008EBFC00089AFC000847
:10339800A0FC00081B14010883FD00082DE9F0417A
:1033A8000F4E104F054600244FF001082B7853FAB2
:1033B80084F01F280DDC726908FA00F333EA020270
:1033C80007D1736157F830301BB107EBC002516861
:1033D80098476A780134E3B29A42E7D2BDE8F081AF
:1033E80000040140DC090020044B18440023013389
:1033F800994200F8012BFADC704700BF2102002037
:1034080010B4064B064902460C681856012393402F
:1034180023430B6010BCFFF711B900BF2102002045
:10342800000401401F2806DC034901220B68824082
:1034380023EA02030B6070470004014003292AD8DD
:10344800DFE801F0020E141F134B01229968824035
:1034580021EA02019960D96821EA0202DA6070471C
:103468000D4B0122996882401143F3E70A4B012270
:10347800D96882401143D960996821EA02029A60AA
:103488007047012303FA00F0034B9A6802439A60DD
:10349800DA681043D86070470004014030B50A4B21
:1034A80053F830408C4204D103EBC0056D68954257
:1034B80005D034B943F8301003EBC0035A6000203C
:1034C80030BD6FF00F00FBE7DC090020034B002242
:1034D80043F8302003EBC0035A607047DC09002032
:1034E800F8B50C7914F0200206D02F48452106F0D3
:1034F80077FF6FF01500F8BD0B78082B02D02B482A
:103508004521F4E74B78042B02D029484521EEE702
:103518004D88406804F01F040168B5B143F6FF7395
:103528009D421DD0234F00F1160636F8023F3B435B
:103538009BB29D420AD00132082AF6D11E48452185
:1035480006F04EFF1D484521D1E72A4690F928305C
:1035580043B1013BDBB2012B23D919484521EFE7E1
:103568000722F3E7012304EB4400092C03FA04F3D0
:1035780043EA846385BF1E3843EA005343EA005395
:1035880043F00073D80D00F0040001F11404C3F3F4
:103598000453215807259D4021EA05019A400A4312
:1035A80022500020A7E700BF24FE000851FE0008B3
:1035B8006BFE000800C0FFFF8AFE0008EDFE000851
:1035C800B2FE000838B5334B1A68520747D5324C5B
:1035D8001A6CD4F8AC30991CC4F8AC101A8094F862
:1035E800BD3094F8BC200133DBB29A4284F8BD3078
:1035F800254634D1002384F8BD30E36FB3B3D4F843
:103608009430B4F8A0203BB1244804F17C019847D9
:10361800012812D0022823D0B4F8A030B4F89C2096
:103628009A421DD90133A4F8A030D4F890304BB990
:10363800BDE83840184806F081BFD4F8B030C4F867
:10364800AC30F2E7BFF35B8F55E8003F5A1E45E800
:1036580000210029F8D1BFF35B8F012BE8DC38BDCE
:10366800D4F8903013B10E480AF00CF84FF6FF73F7
:10367800A4F8BE3094F878304BB1606F10B10021D7
:1036880006F07CFB0748BDE8384004F003B906485B
:10369800F9E700BF00000450000000208CDA0008A1
:1036A80008000020400000205800002037B543687B
:1036B8001D680446284606F080FF63681A68936808
:1036C80023F0404323F03F0343F0004393609368A3
:1036D800002BFCDB63680D4899688368DB687BB95D
:1036E8000B48452106F07CFE019B1BB90948452182
:1036F80006F076FE284603B0BDE8304006F044BF29
:1037080001AA98470028EFDAEAE700BF88D900083D
:1037180008FF000827FF00082DE9F743D0F80480C8
:103728000769D8F8006005462F4C204609F0C0FE0E
:1037380048B92E48452106F053FE6FF01204204682
:1037480003B0BDE8F0834FF6FF73A7F8BE30C7F8A3
:10375800A850D5F80490A368D9F808101B6820462B
:10376800984738B9224AD9F81010936823F47C1383
:103778000B439360D8F8140001AA002107F0CDFA92
:10378800041E07DB019B00221979186800F014FE5B
:10379800041E05DA17482246452106F021FECEE729
:1037A800B36823F0204323F03F03B360B36823F0EA
:1037B800104323F03F0343F08053B360142009F013
:1037C80069FED8F8043003B198472846FFF76EFF22
:1037D800F36823F47C63F360BB6C1BB907F140000A
:1037E80004F058F80024AAE788D9000840FF000828
:1037F8000003045064FF00082DE9F04F4368046992
:103808001D688B68C4F8AC30D1F80480C4F8B8805F
:1038180085B0074640460E46FDF724FC002384F891
:10382800BC0084F8BD30B8F1000F04D19948452197
:1038380006F0D6FD06E0102809DD9748102245213C
:1038480006F0CEFD6FF0150005B0BDE8F08F7A6880
:10385800106892F92AC02832634503DB14D18F48D7
:103868004521E5E752F8041F96F810E0BEEBD14F6A
:1038780028D15FFA81F8B8F1FF0FC1F3042BC1F327
:10388800423AC1F302491FD17B680293D3F800E0A2
:103898003B69D3F8B8004FF000080EF1300B60BB5D
:1038A80094F8BC3032685B0012B1928902FB033392
:1038B800F2689A4264D27A48452106F091FD6FF089
:1038C8000B00C1E70133C7E750F8083023FA0BF3C0
:1038D8000AEA03039945D7D006F06FFE7B681A6899
:1038E80052F808300AFA0BFA23EA0A0309FA0BF924
:1038F80043EA090342F80830C6E790FAA0F2B2FAA0
:1039080082F2012303FA02F9092A49EA826302EBE7
:103918004201029A88BF1E3992F929208ABF43EAD8
:10392800015343EA015343F00073012A039322D160
:103938005C4A5FFA88FA52F82A104FEA911C0CF098
:103948000C0C01F01F015BF80C2013461F228A4063
:1039580023EA0202039BC3F384638B401A434BF8A8
:103968000C20514ADEF8303052F82A2023F00F0399
:103978001343CEF8303020EA090008F101088EE739
:10398800727C002A57D12B6923F4806323F0030348
:103998002B61B37C13B13846FFF788FE284606F042
:1039A800F3FD10232B606B6843F004036B6037460C
:1039B8000FCF04F17C050FC53B682B6000272767F4
:1039C8003368002B5FD00FCB04F1900585E80F001A
:1039D800E567A4F8A070002855D0BFF35B8F54E8C2
:1039E800003F44E80072002AF9D1BFF35B8FD4F896
:1039F800900040F2E733C01847F100014FF47A72A3
:103A08000023FDF7D5FA0022CDE90001002304F1D7
:103A1800080006F0F1F894F87830002B37D14FF011
:103A2800FF324FF0FF3304F1580003F077FF00B185
:103A38002067206F08E7082A22D82B6923F48063BF
:103A480023F0030343F001032B61184B53F8228042
:103A5800174B53F822902B6903F01C03994504D1A6
:103A68002B6903F4F073984593D0284606F0A5FD1A
:103A78002B6948EA090823F4FE7343EA080387E739
:103A88000C484521D4E6204606F058FDC3E700203F
:103A9800DAE600BF87FF0008A1FF0008CFFF000893
:103AA800E7FF000890E1000850E100082CE1000859
:103AB80008E1000811000108024B1868C0F38020D3
:103AC800704700BF0010024010B5244B18680B68FF
:103AD800072B144615D00A2B0AD893B1013B092BA2
:103AE8000FD8DFE803F017152E310E330E1A2228EF
:103AF800582B0FD008D84C2B0CD0502B0AD0482B61
:103B080008D06FF0850007E05C2B03D0602BF7E747
:103B18004FF400402060002010BD00F0EBF81423A3
:103B280058430723B0FBF3F0F4E700F0E3F814235D
:103B380058434008EEE700F0DDF8142358438008A6
:103B4800E8E74FF4FA40E5E70548E3E7054B064A9E
:103B58001B68C3F3031352F82300DBE714020020A9
:103B68000024F40000100240A0E60008F8B55C4C00
:103B78005C4F00F0D5F803F091F8A3685A4AC3F3F4
:103B880003131578D35C47FA05F520FA03F6AE421D
:103B980002D2284603F0A8FAFFF78EFF012807D0C3
:103BA800236843F480732360FFF786FF0128FBD165
:103BB800236843F008032360236823F0F00343F0ED
:103BC800B0032360236843F004032360636823F48D
:103BD8007F43636023689A0706D4236843F0010390
:103BE800236023689B07FCD5D4F8943043F0010385
:103BF800C4F89430D4F894309807FBD53B4B1A6836
:103C080042F480721A601A68D105FCD5D4F8903055
:103C180043F00103C4F89030D4F890309A07FBD5EC
:103C2800324A136823F480731360A36803F00C030B
:103C38000C2B1AD1FFF740FF012807D0236843F463
:103C480080732360FFF738FF0128FBD1A36823F0B6
:103C5800030343F00103A360A36803F00C03042BE0
:103C6800FAD1A36823F0F003A360236823F08073DC
:103C78002360E36823F40033E360E36843F48033AC
:103C8800E360E36823F4C003E360E36843F480136C
:103C9800E36000F033F8236843F0807323602368FF
:103CA8009B01FCD5A36823F0F003A360A36843F04D
:103CB8000303A360A36803F00C030C2BFAD1AE42F4
:103CC80002D3284603F010FA094B1F60A36823F4B7
:103CD800E063A360A36823F46053A3600020F8BDE9
:103CE8000010024000B4C40408110108007000402C
:103CF80014020020004870470024F400054B0649D0
:103D0800DA681140054A0A43DA60DA6842F08072DC
:103D1800DA607047001002408C80FFF9021400023C
:103D2800064B9A6D42F080529A659B6D82B003F003
:103D380080530193019B02B0704700BF00100240FE
:103D480008B5074809F0B4FB38B10648FEF75CFF30
:103D58000448FEF7B3F8002008BD6FF01200FBE737
:103D680078DA0008713D00080A2838B5074D04467E
:103D780004D1AB680D215B6828469847AB680348B7
:103D88005B68E1B29847204638BD00BF78DA000882
:103D980010B5036961B92049204A21483A2306F041
:103DA80011FB204806F00EFB3A211C4806F001FBE7
:103DB800486850B91C49194A19483B2306F002FBC8
:103DC8001A4806F0FFFA3B21EFE79868F8B18842F5
:103DD80019D1DC6808689860A14200D1D860002039
:103DE80008602AB19A680A60DA68996002B9D960ED
:103DF800002010E0814206D108682060D86881421E
:103E0800EDD1DC60EBE7044600680028F2D1002A17
:103E1800E8D16FF0150010BD8B0001084F000108B4
:103E28006FF0000894000108A3000108B50001081C
:103E380038B50369044658600A4D284609F038FB2E
:103E480068B1094A536843F4007353606168AB680A
:103E58000C311B682846984700EAE07038BD6FF0BF
:103E68001200FBE788D900080070004070B5D1E95E
:103E7800016119B101250C68854001B970BD8A68D6
:103E88002A4010D04B6863B90A490B4A0B485D2396
:103E980006F098FA0A4806F095FA07485D2106F0F8
:103EA80088FA304698471CB1236821461C46E4E747
:103EB8002346FAE7CC0001084F0001086FF000081C
:103EC800B5000108F7B50C461146B1F5001F476863
:103ED80002691D4624D104F00302043292000F2324
:103EE800934043EA9403DAB23449023251F822206B
:103EF800190C02EA134391FAA1F2B2FA82F2D34002
:103F0800BA689A4209D12046FFF78CFA2046FFF793
:103F1800DDFA00212046FFF791FA002003B0F0BD3A
:103F2800B1F5800F41D026492046FFF7B7FA00289F
:103F38003ED1B5F1806F34D0B5F1C06F33D0B5F153
:103F4800007F38D102261F4ABD6892E803006B46FD
:103F580083E803001C488268194612689047C0B974
:103F680004F0030304339B000F229A4042EA9402B0
:103F7800D3B29B0003F1804303F58033110C98689A
:103F880020EA124091FAA1F2B2FA82F29540054372
:103F98009D6020463146FFF751FA2046FFF730FA78
:103FA800BBE70126CFE70326CDE76FF08500B5E72D
:103FB8006FF00F00B2E76FF01500AFE700000140A7
:103FC800753E000814E0000888D9000830B5046977
:103FD8004068C0684568ED0107D543684A6823F41E
:103FE8007F0343EA0243436030BD246B1D4D14F048
:103FF800010F44682AD044F40064446044682C40AB
:10400800234343600B7A9C0728D43AB313785B07A1
:1040180024D4436843F0807343604368039A23F0D1
:1040280000734360436823F4806313434360436829
:104038004A6823F47F0343EA02434360036843F07A
:1040480001030360436843F40053CCE724F400649D
:10405800446044682C4044EA4303D2E7436823F0B1
:104068008073D9E700FCFFFF2DE9F84FD0F80480F2
:10407800D0F81090D8F80C4049484A4A0D46002616
:10408800D8F81C10B1420ED8D9F83030C3F3420327
:10409800012B48D0022B75D04348452106F0A0F9E2
:1040A8006FF0150027E0D8F818B0404B0C2777437D
:1040B8000BEB070ADAF80410994226D01DD83C4BBE
:1040C800994225D03B4B994225D0452106F088F9E5
:1040D8003348344A4FF0000CD9F83010C1F342018C
:1040E800B1EB5C0F1DD15BF80710A94219D1DAF8C2
:1040F800083023610020BDE8F88F2F4B99420DD07E
:104108009142E2D14FF00A0CE6E74FF0060CE3E7E4
:104118004FF0020CE0E74FF0040CDDE74FF0080C1D
:10412800DAE70136ACE741F25C2C4FF47A6740F2EB
:10413800E2464FF4FA7E214B0220421EB5FBF2F212
:10414800B3FBF2F2B7FBF2F10139FF2923D8BCFB2C
:10415800F2F808F1FF38B8F1FF0F1CD8BEFBF2F9EE
:10416800B9F10F0F17D8B6FBF2F2013A0F2A12D89D
:10417800023848EA094343EA007343EA025343EA30
:104188000123B6E740F2145C4FF416774FF4FA7641
:1041980040F2771ECFE701301128CED180E700BF6B
:1041A8004C010108404B4C006C01010840420F00D3
:1041B800A0860100801A060040E1330000CA9A3B3D
:1041C80008B5036993F8502032B90548452106F02F
:1041D80007F96FF0040008BD1B6B0B600020FAE7BD
:1041E800FC01010842680B460169D26881F8523027
:1041F80023B9136823F44013136070470268024818
:10420800452106F0EDB800BF1F020108F7B50446C6
:10421800436806691C48DD680F4659688368DB688F
:104228000022019243B91948452106F0D9F86FF0E8
:104238000404204603B0F0BD01AA98470028F2DB29
:10424800376306F118074FF0FF324FF0FF33384657
:1042580003F064FB2B6823F001032B60204696F8DB
:104268005210FFF7BFFF20460199FFF7FDFE96F8B1
:10427800513004461BB12B6843F001032B603846CC
:1042880003F008FBD5E700BF88D900083802010809
:104298002DE9F7430446476805694FF0FF320021CE
:1042A800284609F059F94FF000093B68204698471D
:1042B80085F8509085F852900122114605F11800B2
:1042C80009F04AF9324E304609F0F2F848B9314857
:1042D800452106F085F86FF01204204603B0BDE8CA
:1042E800F083D4F8048001AAD8F81400494606F0EF
:1042F80014FD021E07DB019B4A461979186800F075
:104308005BF8021E1FDA2448452106F069F83B696C
:10431800224A93422FD023D8214A93422DD0214AB2
:1043280093422CD04521204806F05AF80021204617
:1043380041F01001FFF76AFF041E24DA1B484521EB
:1043480006F04EF8C9E7B368D8F804101B68304681
:1043580098470028DBD01648452106F041F8D6E7F3
:10436800144A93420DD002F5C31202F5206293421B
:10437800D8D10A21DBE70621D9E70221D7E70421B2
:10438800D5E70821D3E7012385F850300024A4E7B6
:1043980088D9000840FF00086B02010840420F005E
:1043A800A0860100801A06004C010108AF0201082E
:1043B8008E02010840E133002DE9F047264F0446FC
:1043C80000EBC1060025B44201D1002014E02068AA
:1043D800C30600F01F0811D4656845F02005C0F336
:1043E800471AC0F343200A2832D857F82090B9F169
:1043F800000F1CD16FF01200BDE8F087B8F1100F64
:1044080013D0B8F1110F01D16568E8E7B8F1000FD2
:10441800E5D112491248134A40F20B1305F0D2FFB6
:10442800104840F20B1105F0C4FF3025D7E7484685
:1044380009F03EF80028DDD043462A460AF00F016D
:10444800484606F082FA002804F10804BBDAD3E7EC
:104458006FF01500D0E700BF84E3000835030108BA
:104468006FF0000802030108B1F5807F22D016D84A
:10447800102921D00FD8012920D0042908BF0123F1
:1044880018BF08231049026AC85C022383401340FE
:1044980023FA00F07047402908BF0323F0E7B1F57D
:1044A800805F0DD0B1F5803F0CD0B1F5806F08BFAB
:1044B8000523E5E70423E5E70223E3E70023E1E733
:1044C8000623DFE70723DDE75F0401082DE9F0474E
:1044D80001F1FF3C88B0BCF1050FBDF8407044689D
:1044E8001646984609D986480A46452105F078FFB8
:1044F8006FF0150008B0BDE8F0872268B2F1804F70
:1045080006D0804B9A4203D0B6F5803F00F2F58082
:104518007D4B032953F82C5007F4807A0BD9BAF154
:10452800000F11D12846D146B6B9136A23EA000311
:1045380013620020DEE7754B53F82C90BAF1000F98
:1045480006D0B9F1000F05D10A4671484521CDE7DB
:104558002846E9E74846E7E7A36863BB013E136AD4
:1045680007F0010730EA03034FEA470744D1B0F5E3
:10457800807F00F0B88032D8102800F0B6802AD8A2
:10458800012800F0B480042808BF012318BF0823BD
:104598006048116AC05C0223834021EA0303874014
:1045A8001F435D4B176253F82C30206841469847EB
:1045B8002368DE62BDE7102B02D108F1FF38CDE792
:1045C80023F04001202902D0402B40F096804FEA8A
:1045D80058087608C3E7402808BF0323D6E7B0F594
:1045E800805F00F08680B0F5803F00F08480B0F5F1
:1045F800806F08BF0523C9E7684608F041FF6023BC
:1046080000930123BAF1000F1DD002930597236888
:104618001B6A35EA03030CBF0123002301932068BA
:104628002946FFF721FF0490CDF80C8020686A46E0
:10463800294602F0D7FBC8B13848452105F0D0FE1D
:104648006FF0040056E701930497B9F1000FEBD01F
:1046580023681B6A39EA03030CBF01230023029372
:1046680020684946FFF700FF0590DDE722681368D8
:1046780043F080031360B5F5807F22682BD01FD8E4
:10468800102D2AD018D8012D04D0042D08BF0120E0
:1046980018BF0820224B195C224B1832185C555859
:1046A800082383402B4353502368DE6222685369F2
:1046B80043F0010353613CE7402D08BF0320E7E7BF
:1046C800B5F5805F0BD0B5F5803F0AD0B5F5806FA2
:1046D80008BF0520DCE70420DCE70220DAE7062033
:1046E800D8E70720D6E7042352E7022350E7002340
:1046F8004EE706234CE707234AE76FF08500F9E603
:104708004D030108000C00403CE4000830E40008B8
:10471800670301085F04010818E40008930301080F
:1047280071040108680401082DE9F04387B007699E
:104738004568404E304608F0BBFE48B93E48452122
:1047480005F04EFE6FF01204204607B0BDE8F08376
:10475800D6F8089005F10C08D9F8003041463046E3
:104768009847041E05DA35482246452105F038FEEB
:10477800EAE7D9F80C30FBB101AA41463046984720
:10478800041E1BDB019B3B60D7E901018368DB68E2
:10479800C3B9686901AA002106F0BFFA041E07DB45
:1047A800019B002219791868FFF706FE041E0BDA30
:1047B800234822464521D9E76FF05704214822466D
:1047C8004521D3E79847E4E701A808F050FE6B6855
:1047D800ADF80430AB6802930023CDE9033301A997
:1047E800286802F0A9FA30B11748452105F0F8FD0C
:1047F8006FF00404A8E72B68144A93420FD002F51F
:10480800006293420BD002F54062934207D002F552
:104818008062934203D002F58062934203D15A6CBE
:1048280042F400425A642A68136843F00103136093
:10483800002489E788D9000840FF0008C20301085E
:104848000E040108E703010831040108002C0140A7
:1048580030B50D29006920D1C488B0F90E500389FC
:10486800B0F902101B1B491B4B43B0F91010491B30
:1048780093FBF1F32344002B1946B8BFD91D5842C6
:1048880000F0070003F0070358BF43421248C9105D
:104898004343C2E90013002030BD102919D104791F
:1048A800B0F90A504379B0F900101B1B491B4B4360
:1048B800B0F90C100948491B93FBF1F3234403EBAF
:1048C800D371002B03F001034FEA6101B8BF5B42CB
:1048D800DEE76FF08500DFE748E8010020A1070068
:1048E80037B53B290569406809D010491048114A75
:1048F8004C2305F067FD0F484C2105F05AFD0423B1
:104908000DEB0302A82108F05AFD041E06DA0A4836
:10491800452105F065FD204603B030BDBDF80430E3
:104928002B80BDF806306B800024F4E7C004010832
:104938006FF000088B040108D804010870B54568B9
:1049480086B006460DF10701284608F072FD041EE0
:1049580004DA3348452105F043FD09E09DF80730A6
:10496800BC2B08D02F48452105F03AFD6FF01504FF
:10497800204606B070BD0121284608F02CFD041E13
:1049880002DA29484521E6E70121284608F03AFDE0
:10499800041E02DA25484521DDE70121284608F0F2
:1049A8004FFD041E02DA22484521D4E700210320E6
:1049B80004F040FB70683569102302AAB02108F0A2
:1049C800FEFC041E06DA1B48452105F009FD1948BE
:1049D8004521C0E7BDF80830AB809DF80D309DF843
:1049E8000A201548190201F440710A43EA809B0124
:1049F8009DF80B2003F4407313432B81BDF80E3050
:104A08006B81BDF81230AB81BDF81430EB81BDF875
:104A180016302B82492105F0E3FC0024A8E700BFEB
:104A2800FA040108170501082D05010851050108B8
:104A38006C05010886050108AB05010870B54568D5
:104A48008AB0286808F034FD38B92648452105F0B1
:104A5800C7FC6FF012000AB070BD0F228DF8072056
:104A68000DF107022868AB88049201260DF10602B1
:104A7800CDE907260024072205968DF818408DF801
:104A88002420022204A906F0E7F9A04206DA164813
:104A9800452105F0A5FC6FF00400DCE79DF8063021
:104AA8003D2B06D01148452105F09AFC6FF0150002
:104AB800D1E748F2200302934FF48043ADF80C305D
:104AC80002AA2868AB8804920622059202228DF871
:104AD8001820324604A906F0BFF90028DBDB20467F
:104AE800B9E700BFEA050108FA040108170501083B
:104AF8002DE9F0433B29056946688BB009D0274961
:104B08002748284A452305F05DFC2648452105F03D
:104B180050FC28223068B3888DF8072002AA0DF1CE
:104B280007074FF00109002407924FF007080822F1
:104B38000497CDF814908DF8184008928DF82480C9
:104B4800022204A906F088F9A04204DA6FF00400F2
:104B58000BB0BDE8F0832E223068B3888DF80720AB
:104B68000DF10E0207920222CDE904798DF8184062
:104B780008928DF8248004A906F06EF90028E5DB78
:104B8800BDF908302B80BDF90A306B80BDF90C30B7
:104B9800AB80BDF90E30EB802046D9E7C004010890
:104BA8006FF0000808060108F8B50B2906691446D5
:104BB80046D1B6F90000494D41F6BA27C11790FB16
:104BC800F7F3136041F6BA220023FCF7A1F99C46DB
:104BD800A2FB050105FB0C1141F6BA220023FCF7E4
:104BE80097F96060B6F9020090FBF7F341F6BA2234
:104BF800A360C1170023FCF78BF99C46A2FB0501B3
:104C080005FB0C1141F6BA220023FCF781F9E0609C
:104C1800B6F9040090FBF7F741F6BA2227610023A2
:104C2800C117FCF775F9A2FB05011E4641F6BA2229
:104C3800002305FB0611FCF76BF960610020F8BD45
:104C48000839042946D8DFE801F0031D2045230070
:104C5800B6F90000214D41F6BA2341F6BA2290FB7D
:104C6800F3F3C11723600023FCF752F9A2FB0501F7
:104C78001E4641F6BA22002305FB0611FCF748F947
:104C88006060DBE7B6F90200E4E7B6F90400E1E7A3
:104C9800B6F9062012F0004502F0070305D5013BDE
:104CA80063F00703013365EB05050C48A3FB0031EE
:104CB80000FB0511002902DA073341F10001002A3F
:104CC800B8BF0732DB08D21043EA41731932636078
:104CD8002260B3E76FF08500B1E700BF40420F00E4
:104CE80030B50E29036911D11968114C0B130A2527
:104CF800C1F30B0193FBF5F005FB103361436343EC
:104D080003EB1133C2E90003002030BD0D290CD19B
:104D1800B3F90430642493FBF4F104FB113308B2B3
:104D280042F2107113FB01F3ECE76FF08500ECE73A
:104D3800A086010030B53B29056943688BB009D0CE
:104D48001B491C481C4A272305F03CFB1A4827210D
:104D580005F02FFB28228DF807200DF107021868AF
:104D6800049201229B88059202AA07920522002438
:104D7800089207228DF818408DF82420022204A9F1
:104D880006F070F8A04210DB9DF80A309DF8092063
:104D98001B0443EA02239DF8082013432B60BDF847
:104DA8000B30AB8020460BB030BD6FF00400FAE743
:104DB800C00401086FF000085706010870B5436881
:104DC80088B00546186808F073FB38B91E484521B5
:104DD80005F006FB6FF0120008B070BD6E680F2278
:104DE8008DF807200DF10702306802920DF10601D7
:104DF8000122B3880392CDE90512002407228DF819
:104E080010408DF81C20022202A906F02BF8A042BF
:104E180003DB9DF80630B12B02D06FF00400DBE70E
:104E28006868302301790068702206F021F80028AC
:104E3800F3DB0223317930681A4606F019F80028A6
:104E4800EBDB2046C8E700BFEA05010870B5056935
:104E58002A6A0B01D6680C4603F0F003F0221121F0
:104E6800B047002809DB0B2C96BF054B41F60823F9
:104E780033F81430EB84002070BD6FF00400FBE7BA
:104E88000EE7000870B505692A6A0B01D6680C465A
:104E980003F0F003F0221021B047002809DB0B2CA7
:104EA80096BF054B41F6082333F81430AB84002035
:104EB80070BD6FF00400FBE70EE7000873B54368A8
:104EC8001B6804469847051E04DA3948452105F051
:104ED80087FA0FE025692B6ADE6880231A461221BB
:104EE8002046B047002808DA3248452105F078FA0C
:104EF8006FF00405284602B070BD48F6B80008F007
:104F0800C9FA2B6A0DF107029B680F2120469847C2
:104F18000028E9DB9DF807306A2BE5D100212046FF
:104F280005F0E2FF0028DFDB234BEB600021204681
:104F3800FFF7A8FF0028D7DB0421204605F0E4FF8F
:104F48000028D1DB1D4BEB6100212046FFF77EFFD7
:104F58000028C9DB2B6A0722DE680A2100232046C5
:104F6800B0470028C0DB2B6A4622DE6812214423A2
:104F78002046B0470028B7DB2B6ADE6810231A46A4
:104F880015212046B0470028AEDB2B6ADD68802358
:104F98001A4616212046A8470028A5DB204600F01F
:104FA800CFF8051E02DA0648452190E70025A1E75B
:104FB800A7060108CC0601080000744200B888451D
:104FC800EB06010808B5026943680549116258688B
:104FD80008F06EFA00280CBF6FF01200002008BD20
:104FE8000CE5000870B503460029C068197C0CBFA1
:104FF8004FF400124FF0B862836846689C690569EF
:1050080024B3366801238B4033420ED11049114A2C
:10501800114840F28B3305F0D5F9104805F0D2F964
:105028000C4840F28B3105F0C4F9160206D52A68FF
:1050380013420CBF4FF0B8624FF0707202F0C063B9
:10504800A44602F0B072BDE87040604770BD00BF72
:1050580083070108520701086FF00008C10701081B
:105068002DE9F743B1F800804568D0F81090B8F101
:10507800010F04460E46174609D02A492A482B4AEA
:10508800332305F09FF92948332105F092F9EB689D
:1050980043B92748452105F0A3F96FF0850003B00F
:1050A800BDE8F08300212846FFF79CFFC9F83C7053
:1050B800002F35D0C9F8386060684146FFF792FF85
:1050C8002B7CE86808FA03F843681B6818EA030FA2
:1050D8000DD11849184A144840F2FF5305F072F9E7
:1050E800164805F06FF9144840F2FF51CDE70569FD
:1050F800836801A95B68984738B92A68019B5340BF
:1051080013EA080F14BF01200020002808DD2569D4
:1051180060680021FFF766FF05F1400002F040FEDD
:105128000020BCE7120801086FF00008D307010847
:10513800370801088307010852070108C107010859
:105148002DE9F041466805690446F06808F0B0F9B1
:1051580038B94748452105F043F96FF01200BDE81A
:10516800F081B6F812C0F068317C4CF480320CF053
:105178003007302FD0E90138D0F810E00ED13D4982
:105188003D4A3E4840F2D33305F01CF93C4805F04F
:1051980019F940F2D331384805F00BF90CF0020741
:1051A80067B13849344A354840F2D73305F00AF92F
:1051B800354805F007F940F2D731ECE70CF006075F
:1051C800042F09D131492C4A2C4840F2DA3305F032
:1051D800F9F840F2DA31DEE71B6801278F401F42F9
:1051E8000CD12B49244A254840F2ED3305F0EAF862
:1051F800284805F0E7F840F2ED31CCE7DEF800305A
:105208001CF0010F14BF3B43BB43CEF80030D8F865
:1052180000309847337C204A012707FA03F3C5E991
:105228000C23F0688368DB6905F12C0133B91B484E
:10523800452105F0D5F86FF0040090E73A46984705
:105248000028F4DB2B6ADE6803231A460D2120466A
:10525800B047002802DA12484521EAE7114BAC6250
:105268006B6460683946FFF7BDFE002077E700BF32
:10527800530801086E080108520701086FF000087A
:10528800A7080108E40801082B0901087A090108A0
:1052980083070108C10701086FB10008AD090108BB
:1052A800CF0901088BB100082DE9F8430C290769DB
:1052B8004468154662D13B689B689889FBF7E8FB10
:1052C8000646B7F93A00FBF7E3FB01463046FBF721
:1052D80033FC06462069FBF7DBFB01463046FBF74B
:1052E800DFFC2368D4F81480B3F80090064649FA26
:1052F80008F0FBF7CDFB01463046FBF713FB676868
:105308000646E068C01BFBF7C3FB3146FBF714FCFD
:10531800A36806461888A0EB090040FA08F0FBF7D6
:10532800B7FB01463046FBF7BBFC04463846FBF7A3
:10533800AFFB2146FBF7F8FA0446FBF7C3FD074627
:10534800FBF7A6FB01462046FBF7ECFA0E49FBF7F4
:10535800F3FB4FF04F410646FBF78CFD88B94FF041
:105368009E413046FBF7A4FD044650B92F603046F5
:10537800FBF7A8FD68602046BDE8F8836FF085005C
:10538800FAE76FF02100F7E700247449F8B53B29E4
:10539800056901D00C2935D105F124064FF0FF32FB
:1053A8004FF0FF33304602F015F9294651F8040B47
:1053B80083681B6898470446F8B9144FBB68BA68F5
:1053C80003F0E07322F0E072134343F40003BB6080
:1053D800782008F031F9294651F8100B83685B688A
:1053E8009847044608B92B8F6B87BA68BB6802F0E8
:1053F800A07223F0E0731343BB60304602F0BAF9A1
:105408002046F8BD6FF08504FAE700BF000304509A
:1054180038B5046904F1240008F097F8206808F00A
:1054280047F840B923680F481A68452104F0D8FFA7
:105438006FF0120038BD237A012503F01F031422F0
:10544800002104F110009D4008F0FFF904F1380331
:10545800A3610223E3610C23656184F820300020F6
:10546800E8E700BFFB090108F8B53B29056901D049
:105478001F2932D105F124064FF0FF324FF0FF33D8
:10548800304602F0A7F8294651F8040B83681B68D8
:1054980098470446E0B9124FBB68BA6803F0E07356
:1054A80022F0E072134343F080732946BB6051F841
:1054B800100B83685B689847044608B92B8F6B8785
:1054C800BA68BB6802F4400223F0E0731343BB6080
:1054D800304602F04FF92046F8BD6FF08504FAE730
:1054E8000003045038B5046904F1240008F02DF8CD
:1054F800206830B91348452104F072FF6FF012009C
:1055080038BD07F0D5FF30B923680F481A68452120
:1055180004F066FFF2E7237A012503F01F03142243
:10552800002104F110009D4008F08FF904F13803C0
:10553800A3610223E3610C23656184F82030002015
:10554800DEE700BF2A0A0108FB09010810B51F2978
:105558001446036942681CD1B3F93A3033B90E488E
:10556800452104F03DFF6FF03C0010BD1168526802
:10557800088850434FF47A7290FBF3F00023C11768
:10558800FBF7C6FC4FF47A735A4320606260002030
:10559800EBE76FF08500E8E74D0A0108F8B53B290D
:1055A800056901D01F2935D105F124064FF0FF32D6
:1055B8004FF0FF33304602F00DF8294651F8040B3E
:1055C80083681B6898470446F8B9144FBB68BA68E3
:1055D80003F0E07322F0E072134343F48003BB60EE
:1055E8000C2008F029F8294651F8100B83685B68ED
:1055F8009847044608B92B8F6B87BA68BB6802F0D6
:10560800C07223F0E0731343BB60304602F0B2F877
:105618002046F8BD6FF08504FAE700BF0003045088
:1056280038B5046904F1240007F08FFF206807F0FB
:105638003FFF40B923680F481A68452104F0D0FE9F
:105648006FF0120038BD237A012503F01F031422DE
:10565800002104F110009D4008F0F7F804F1380328
:10566800A3610223E3610C23656184F820300020E4
:10567800E8E700BFFB090108F0B5446806699DB07A
:1056880000210546632203A8ADF8061008F0DDF8EE
:10569800A06800285BD0217BE38903F03002302A20
:1056A800D0E9014ED0F810C00ED18349834A84480E
:1056B80040F2D33304F086FE824804F083FE40F2C1
:1056C800D3317E4804F075FE03F00602042A09D19E
:1056D8007D497A4A7A4840F2DA3304F073FE40F2A0
:1056E800DA31EEE724680127DA0707FA01F754BF31
:1056F80043F4B01383F4D013274223F480120CD15F
:1057080072496E4A6E4840F2ED3304F05BFE704811
:1057180004F058FE40F2ED31D3E7DCF80040DB0737
:105728004CBF3C43BC43CCF80040DEF800309847FF
:10573800031E08DA67482A68452104F051FE6FF015
:1057480004001DB0F0BD0220002103F073FC341DDD
:1057580003A9204605F020FF002807DA5E482A68DA
:10576800452104F03DFE6FF01200EAE70DF1060254
:10577800C021204600F0ECF9002805DBBDF8062022
:105788004EF6AA639A4207D02A685448452104F085
:1057980027FE6FF08500D4E7204600F08BFE031E3D
:1057A80005DA2A684E48452104F01AFEF1E72F6908
:1057B8000437384600F098FF044650B12A68494833
:1057C800452104F00DFE002CE3DB0123337000209B
:1057D800B7E701AA0DF10301384606F095F804462B
:1057E80018B12A6840484521EBE70DF1050202A9E6
:1057F800384606F08AFA044618B12A683B4845211B
:10580800DFE70146384600F047FE044618B12A682B
:1058180037484521D5E701460122384605F080FF83
:10582800044618B12A6833484521CAE701221146BF
:10583800384605F075FF044618B12A682E484521F8
:10584800BFE741F699120121384605F0B2FF044638
:1058580018B12A6829484521B3E701464FF4701268
:10586800384605F0A6FF044618B12A6824484521A1
:10587800A7E748F2E801384605F09CFE044618B14F
:105888002A68204845219CE701461222384605F03F
:1058980093FE044618B12A681B48452191E70E2259
:1058A8000121384605F088FE044600288DD02A6874
:1058B8001648452185E700BF6E0801085207010810
:1058C8006FF00008A70801087A0901088307010892
:1058D800C1070108730A01089C0A0108C60A0108E1
:1058E800EF0A01081C0B0108400B01086F0B0108A7
:1058F800A10B0108C80B0108FB0B0108340C0108B7
:105908006C0C01089E0C0108DE0C0108150D01083D
:1059180038B53B29056904460DD01A290BD00F2943
:1059280009D011491148124AFB2304F04BFD1048D5
:10593800FB2104F03EFD2B7843B105F5B471281D19
:1059480006F016F9031E07DB002038BD2046FFF7D6
:1059580093FE0028F1DAF8E706482268452104F0AA
:105968003FFD6FF01500F0E7850D01086FF00008A6
:105978004E0D0108DF0D010838B504694168292377
:1059880084F860310D68C4F864518988994203D15C
:10599800BDE83840FFF770BE02680348452104F0AF
:1059A8001FFD6FF0850038BD110E0108F8B50E46D1
:1059B8005D1C11461A46083323F0070300AFADEB10
:1059C800030D0446684600F8016B07F030FF94F8B1
:1059D8005C31D4F860012A46694605F040FC00288D
:1059E80007DA0548452104F0FBFC6FF01300BD46BB
:1059F800F8BD0020FBE700BF8E0E010807B5009335
:105A080013460A4690F85C11D0F8600105F00DFCC9
:105A1800002808DA0548452104F0E2FC6FF004008C
:105A280003B05DF804FB0020FAE700BFA30E0108ED
:105A380007B590F85C318DF804108DF80520D0F882
:105A48006001022201A905F00AFC00280ADA0648CA
:105A58006FF01302452104F0C3FC6FF0130003B08C
:105A68005DF804FB0020FAE7B70E010807B5130A32
:105A78008DF804108DF805308DF8062090F85C310B
:105A8800D0F86001032201A905F0E9FB00280ADA31
:105A980006486FF01302452104F0A2FC6FF01300D2
:105AA80003B05DF804FB0020FAE700BFDB0E010835
:105AB80030B589B003468DF807100DF10701029142
:105AC8000121CDE9052100240722D0F8600193F8CF
